:020000002528B1
:10000800FE0003088301A9007F08AA008B1A0B1DB4
:100018001528E3209A203220672053210E210B1146
:100028001D2883160C1F1D2883120C1F1D28322122
:100038000C1383122A08FF0029088300FE0E7E0E87
:1000480009002030840029302D2058290406800119
:10005800840A0406031D2A28640000348312220837
:10006800031D4728201C3A2801303B280030FF0098
:10007800851C4028013041280030FF06031908007C
:100088000A30A2000800220B6528201C4D280130E8
:100098004E280030FF00851C5328013054280030BA
:1000A800FF0603196528851C5B2820145C2820108E
:1000B800201C6428A01C62284C2165283B21652847
:1000C8002921A203080083122308031D7C28A01CF1
:1000D8006F28013070280030FF00A01D75280130FE
:1000E80076280030FF06031908000A30A30008002C
:1000F800230B9828A01C8228013083280030FF0099
:10010800A01D8828013089280030FF060319982887
:10011800A01D9028A0149128A010A01C9728201C8E
:1001280098284C2198282921A30308008312201914
:10013800B02821080319A828A40A04302402031CA3
:10014800A828A401A1031C212108031D08002808D0
:100158002704031944210800653021020318B62832
:10016800A10A1C212108653A031D08002808270454
:10017800031944210800831298013B308316850037
:1001880083128501703083168F0085308100073017
:10019800831292000C30950065308316920083120A
:1001A800930107309A00990001309F00513083165F
:1001B8009F0060308B0040308C008312080083124F
:1001C800280827040319EC28A7080319A803A7037C
:1001D80028082704031D0800201EF4280130F528EC
:1001E8000030FF00201DFA280130FB280030FF06F0
:1001F800031D442108008312A10120112012A70128
:10020800A801A4012014A201A010A011A301A50116
:10021800A601080083122608250403190800A5086A
:100228000319A603A5032503260403194C21080076
:100238008312210893002108653A031D2629151603
:10024800951608001512951208008312A701A80137
:1002580020163030A5003930A6000800DD308312A2
:100268001E02031C3929A0150800A0110800C4307B
:100278008312A7000430A8002012A501A6010800D7
:100288008312201E492920154A292011A40108009B
:100298008312A701A8012012A501A6010800831254
:1002A8009F1808009F140800BF20FF208B175B29A8
:02400E00D430AC
:00000001FF
